{
  "contractName": "ResourceRentalUniversity",
  "abi": [
    {
      "inputs": [],
      "payable": false,
      "stateMutability": "nonpayable",
      "type": "constructor"
    },
    {
      "anonymous": false,
      "inputs": [
        {
          "indexed": false,
          "internalType": "uint256",
          "name": "fromTimeStamp",
          "type": "uint256"
        },
        {
          "indexed": false,
          "internalType": "uint256",
          "name": "toTimeStamp",
          "type": "uint256"
        },
        {
          "indexed": false,
          "internalType": "address",
          "name": "renterAddress",
          "type": "address"
        },
        {
          "indexed": false,
          "internalType": "enum ResourceRentalUniversity.Permission",
          "name": "renterPermission",
          "type": "uint8"
        }
      ],
      "name": "BookingCreated",
      "type": "event"
    },
    {
      "constant": true,
      "inputs": [
        {
          "internalType": "address",
          "name": "",
          "type": "address"
        }
      ],
      "name": "authorities",
      "outputs": [
        {
          "internalType": "uint256",
          "name": "",
          "type": "uint256"
        }
      ],
      "payable": false,
      "stateMutability": "view",
      "type": "function"
    },
    {
      "constant": true,
      "inputs": [
        {
          "internalType": "uint256",
          "name": "",
          "type": "uint256"
        }
      ],
      "name": "resources",
      "outputs": [
        {
          "internalType": "uint256",
          "name": "resourceId",
          "type": "uint256"
        },
        {
          "internalType": "string",
          "name": "resourceName",
          "type": "string"
        },
        {
          "internalType": "bool",
          "name": "loanable",
          "type": "bool"
        },
        {
          "internalType": "uint256",
          "name": "loanInterval",
          "type": "uint256"
        },
        {
          "internalType": "uint256",
          "name": "resourceElectricityCostPerHour",
          "type": "uint256"
        },
        {
          "internalType": "uint256",
          "name": "resourceCosts",
          "type": "uint256"
        },
        {
          "internalType": "uint256",
          "name": "computingPower",
          "type": "uint256"
        },
        {
          "internalType": "bool",
          "name": "buyOut",
          "type": "bool"
        },
        {
          "internalType": "uint256",
          "name": "appraisedValue",
          "type": "uint256"
        }
      ],
      "payable": false,
      "stateMutability": "view",
      "type": "function"
    },
    {
      "constant": true,
      "inputs": [],
      "name": "university",
      "outputs": [
        {
          "internalType": "address",
          "name": "",
          "type": "address"
        }
      ],
      "payable": false,
      "stateMutability": "view",
      "type": "function"
    },
    {
      "constant": false,
      "inputs": [],
      "name": "addAuthority",
      "outputs": [],
      "payable": false,
      "stateMutability": "nonpayable",
      "type": "function"
    },
    {
      "constant": false,
      "inputs": [
        {
          "internalType": "uint256",
          "name": "fromTimeStampInput",
          "type": "uint256"
        },
        {
          "internalType": "uint256",
          "name": "toTimeStampInput",
          "type": "uint256"
        },
        {
          "internalType": "address",
          "name": "renterAddress",
          "type": "address"
        },
        {
          "internalType": "enum ResourceRentalUniversity.Permission",
          "name": "renterPermission",
          "type": "uint8"
        }
      ],
      "name": "createBooking",
      "outputs": [],
      "payable": false,
      "stateMutability": "nonpayable",
      "type": "function"
    },
    {
      "constant": true,
      "inputs": [],
      "name": "getUniversity",
      "outputs": [
        {
          "internalType": "address",
          "name": "",
          "type": "address"
        }
      ],
      "payable": false,
      "stateMutability": "view",
      "type": "function"
    },
    {
      "constant": true,
      "inputs": [],
      "name": "getResourceRequiredPermission",
      "outputs": [
        {
          "internalType": "enum ResourceRentalUniversity.Permission",
          "name": "",
          "type": "uint8"
        }
      ],
      "payable": false,
      "stateMutability": "view",
      "type": "function"
    }
  ],
  "bytecode": "0x608060405234801561001057600080fd5b5033600460016101000a81548173ffffffffffffffffffffffffffffffffffffffff021916908373ffffffffffffffffffffffffffffffffffffffff1602179055506106c4806100616000396000f3fe608060405234801561001057600080fd5b506004361061007d5760003560e01c8063ae12894e1161005b578063ae12894e14610226578063d40da06c14610270578063ea600a431461027a578063ecdd45d1146102c45761007d565b8063244d6daa1461008257806390a13e631461016957806391223d69146101ce575b600080fd5b6100ae6004803603602081101561009857600080fd5b81019080803590602001909291905050506102f0565b604051808a815260200180602001891515151581526020018881526020018781526020018681526020018581526020018415151515815260200183815260200182810382528a818151815260200191508051906020019080838360005b8381101561012657808201518184015260208101905061010b565b50505050905090810190601f1680156101535780820380516001836020036101000a031916815260200191505b509a505050505050505050505060405180910390f35b6101cc6004803603608081101561017f57600080fd5b810190808035906020019092919080359060200190929190803573ffffffffffffffffffffffffffffffffffffffff169060200190929190803560ff1690602001909291905050506103f0565b005b610210600480360360208110156101e457600080fd5b81019080803573ffffffffffffffffffffffffffffffffffffffff1690602001909291905050506105d3565b6040518082815260200191505060405180910390f35b61022e6105eb565b604051808273ffffffffffffffffffffffffffffffffffffffff1673ffffffffffffffffffffffffffffffffffffffff16815260200191505060405180910390f35b610278610611565b005b610282610613565b604051808273ffffffffffffffffffffffffffffffffffffffff1673ffffffffffffffffffffffffffffffffffffffff16815260200191505060405180910390f35b6102cc61063d565b604051808260028111156102dc57fe5b60ff16815260200191505060405180910390f35b6006602052806000526040600020600091509050806000015490806001018054600181600116156101000203166002900480601f0160208091040260200160405190810160405280929190818152602001828054600181600116156101000203166002900480156103a25780601f10610377576101008083540402835291602001916103a2565b820191906000526020600020905b81548152906001019060200180831161038557829003601f168201915b5050505050908060020160009054906101000a900460ff16908060030154908060040154908060050154908060060154908060070160009054906101000a900460ff16908060080154905089565b83600354014210610469576040517f08c379a000000000000000000000000000000000000000000000000000000000815260040180806020018281038252601c8152602001807f5468652072656e74616c206d75737420626520696e206675747572650000000081525060200191505060405180910390fd5b600460009054906101000a900460ff16600281111561048457fe5b81600281111561049057fe5b10156104e7576040517f08c379a00000000000000000000000000000000000000000000000000000000081526004018080602001828103825260248152602001806106436024913960400191505060405180910390fd5b6002548385011115610544576040517f08c379a00000000000000000000000000000000000000000000000000000000081526004018080602001828103825260298152602001806106676029913960400191505060405180910390fd5b7f280340e636ee1d3c807510d981da2e149655fbc2d173a72f91aba86cad25624384848484604051808581526020018481526020018373ffffffffffffffffffffffffffffffffffffffff1673ffffffffffffffffffffffffffffffffffffffff1681526020018260028111156105b757fe5b60ff16815260200194505050505060405180910390a150505050565b60056020528060005260406000206000915090505481565b600460019054906101000a900473ffffffffffffffffffffffffffffffffffffffff1681565b565b6000600460019054906101000a900473ffffffffffffffffffffffffffffffffffffffff16905090565b60009056fe546865205573657220697320616c6c6f77656420746f20626f6f6b2074686520726f6f6d54686520626f6f6b696e672074696d652069732061626f766520746865206d617852656e7454696d65a265627a7a72315820d5c9f3ade9c67c21e0d37153cb130b73e0c2bd1299f172ea4c6881c8050e2c0e64736f6c63430005100032",
  "source": "pragma solidity ^0.5.16;\n\ncontract ResourceRentalUniversity {\n    // Config Variables\n    uint256 maxRooms;\n    uint256 maxAmountSmartContracts;\n    uint256 maxRentTime;\n    uint256 offsetBookingTime;\n    Permission resourcePermission;\n\n    // Resource Information\n\n    // University Intern\n    address public university;\n    mapping(address => uint256) public authorities;\n\n    // uint256 fromTimestamp;\n    // uint256 toTimestamp;\n\n    struct Resource {\n        uint256 resourceId;\n        string resourceName;\n        bool loanable;\n        uint256 loanInterval;\n        uint256 resourceElectricityCostPerHour;\n        uint256 resourceCosts;\n        uint256 computingPower;\n        bool buyOut;\n        uint256 appraisedValue;\n    }\n\n    mapping(uint256 => Resource) public resources;\n\n    enum Permission {\n        STUDENT,\n        SCIENTIFIC_ASSISTANT,\n        PROFESSOR\n    }\n\n    //constructor\n    constructor() public {\n        university = msg.sender;\n    }\n\n    function addAuthority() public {}\n\n    function createBooking(\n        uint256 fromTimeStampInput,\n        uint256 toTimeStampInput,\n        address renterAddress,\n        Permission renterPermission\n    ) public {\n        require(\n            block.timestamp < (offsetBookingTime + uint256(fromTimeStampInput)),\n            \"The rental must be in future\"\n        );\n\n        require(\n            (renterPermission >= resourcePermission),\n            \"The User is allowed to book the room\"\n        );\n\n        require(\n            (fromTimeStampInput + toTimeStampInput <= maxRentTime),\n            \"The booking time is above the maxRentTime\"\n        );\n\n        emit BookingCreated(\n            fromTimeStampInput,\n            toTimeStampInput,\n            renterAddress,\n            renterPermission\n        );\n    }\n\n    // Functionen\n\n    function getUniversity() public view returns (address) {\n        return university;\n    }\n\n    function getResourceRequiredPermission() public view returns (Permission) {}\n\n    // Modifier\n\n    modifier isUniversity() {\n        require(msg.sender == university, \"Caller is not owner\");\n        _;\n    }\n\n    modifier isAuthority() {\n        require(msg.sender == university, \"Caller is not owner\");\n        _;\n    }\n    // Events\n\n    event BookingCreated(\n        uint256 fromTimeStamp,\n        uint256 toTimeStamp,\n        address renterAddress,\n        Permission renterPermission\n    );\n}\n",
  "sourcePath": "/home/dizzle/Dev/RessourceRental/truffle/contracts/ResourceRentalUniversity.sol",
  "compiler": {
    "name": "solc",
    "version": "0.5.16+commit.9c3226ce.Emscripten.clang"
  },
  "schemaVersion": "3.4.7",
  "updatedAt": "2022-06-01T16:03:30.540Z",
  "devdoc": {
    "methods": {}
  },
  "userdoc": {
    "methods": {}
  }
}