{
  "contractName": "ResourceRental",
  "abi": [
    {
      "inputs": [
        {
          "internalType": "enum ResourceRental.Permission",
          "name": "permissionInput",
          "type": "uint8"
        },
        {
          "internalType": "uint256",
          "name": "maxRentTimeInput",
          "type": "uint256"
        },
        {
          "internalType": "uint256",
          "name": "offsetBookingTimeInput",
          "type": "uint256"
        }
      ],
      "payable": false,
      "stateMutability": "nonpayable",
      "type": "constructor"
    },
    {
      "anonymous": false,
      "inputs": [
        {
          "indexed": false,
          "internalType": "uint256",
          "name": "fromTimeStamp",
          "type": "uint256"
        },
        {
          "indexed": false,
          "internalType": "uint256",
          "name": "toTimeStamp",
          "type": "uint256"
        },
        {
          "indexed": false,
          "internalType": "address",
          "name": "renterAddress",
          "type": "address"
        },
        {
          "indexed": false,
          "internalType": "enum ResourceRental.Permission",
          "name": "renterPermission",
          "type": "uint8"
        }
      ],
      "name": "BookingCreated",
      "type": "event"
    },
    {
      "constant": false,
      "inputs": [
        {
          "internalType": "uint256",
          "name": "fromTimeStampInput",
          "type": "uint256"
        },
        {
          "internalType": "uint256",
          "name": "toTimeStampInput",
          "type": "uint256"
        },
        {
          "internalType": "address",
          "name": "renterAddress",
          "type": "address"
        },
        {
          "internalType": "enum ResourceRental.Permission",
          "name": "renterPermission",
          "type": "uint8"
        }
      ],
      "name": "createBooking",
      "outputs": [],
      "payable": false,
      "stateMutability": "nonpayable",
      "type": "function"
    },
    {
      "constant": true,
      "inputs": [],
      "name": "getRentalRenter",
      "outputs": [
        {
          "internalType": "address",
          "name": "",
          "type": "address"
        }
      ],
      "payable": false,
      "stateMutability": "view",
      "type": "function"
    },
    {
      "constant": true,
      "inputs": [],
      "name": "getResourceRequiredPermission",
      "outputs": [
        {
          "internalType": "enum ResourceRental.Permission",
          "name": "",
          "type": "uint8"
        }
      ],
      "payable": false,
      "stateMutability": "view",
      "type": "function"
    }
  ],
  "bytecode": "0x608060405234801561001057600080fd5b5060405161046b38038061046b8339818101604052606081101561003357600080fd5b81019080805190602001909291908051906020019092919080519060200190929190505050336000806101000a81548173ffffffffffffffffffffffffffffffffffffffff021916908373ffffffffffffffffffffffffffffffffffffffff160217905550816004819055508060058190555082600660006101000a81548160ff021916908360028111156100c457fe5b0217905550505050610390806100db6000396000f3fe608060405234801561001057600080fd5b50600436106100415760003560e01c806390a13e6314610046578063b7445120146100ab578063ecdd45d1146100f5575b600080fd5b6100a96004803603608081101561005c57600080fd5b810190808035906020019092919080359060200190929190803573ffffffffffffffffffffffffffffffffffffffff169060200190929190803560ff169060200190929190505050610121565b005b6100b36102f6565b604051808273ffffffffffffffffffffffffffffffffffffffff1673ffffffffffffffffffffffffffffffffffffffff16815260200191505060405180910390f35b6100fd610320565b6040518082600281111561010d57fe5b60ff16815260200191505060405180910390f35b8360055401421061019a576040517f08c379a000000000000000000000000000000000000000000000000000000000815260040180806020018281038252601c8152602001807f5468652072656e74616c206d75737420626520696e206675747572650000000081525060200191505060405180910390fd5b600660009054906101000a900460ff1660028111156101b557fe5b8160028111156101c157fe5b1015610218576040517f08c379a00000000000000000000000000000000000000000000000000000000081526004018080602001828103825260248152602001806103386024913960400191505060405180910390fd5b81600160006101000a81548173ffffffffffffffffffffffffffffffffffffffff021916908373ffffffffffffffffffffffffffffffffffffffff16021790555083600281905550826003819055507f280340e636ee1d3c807510d981da2e149655fbc2d173a72f91aba86cad25624384848484604051808581526020018481526020018373ffffffffffffffffffffffffffffffffffffffff1673ffffffffffffffffffffffffffffffffffffffff1681526020018260028111156102da57fe5b60ff16815260200194505050505060405180910390a150505050565b6000600160009054906101000a900473ffffffffffffffffffffffffffffffffffffffff16905090565b6000600660009054906101000a900460ff1690509056fe546865205573657220697320616c6c6f77656420746f20626f6f6b2074686520726f6f6da265627a7a72315820c4e8ed831d1aec59dde638fbd99e053a9c94e35e6d6c539099d0c9e0f7df9d9764736f6c63430005100032",
  "source": "pragma solidity ^0.5.16;\n\ncontract ResourceRentalGetInformation {}\npragma solidity ^0.5.16;\n\ncontract ResourceRental {\n    address owner;\n    address currentRenter;\n    uint256 fromTimestamp;\n    uint256 toTimestamp;\n    uint256 maxRentTime;\n    uint256 offsetBookingTime;\n    Permission resourcePermission;\n\n    enum Permission {\n        STUDENT,\n        SCIENTIFIC_ASSISTANT,\n        PROFESSOR\n    }\n\n    constructor(\n        Permission permissionInput,\n        uint256 maxRentTimeInput,\n        uint256 offsetBookingTimeInput\n    ) public {\n        owner = msg.sender;\n        maxRentTime = maxRentTimeInput;\n        offsetBookingTime = offsetBookingTimeInput;\n        resourcePermission = permissionInput;\n    }\n\n    event BookingCreated(\n        uint256 fromTimeStamp,\n        uint256 toTimeStamp,\n        address renterAddress,\n        Permission renterPermission\n    );\n\n    function createBooking(\n        uint256 fromTimeStampInput,\n        uint256 toTimeStampInput,\n        address renterAddress,\n        Permission renterPermission\n    ) public {\n        require(\n            block.timestamp < (offsetBookingTime + uint256(fromTimeStampInput)),\n            \"The rental must be in future\"\n        );\n\n        require(\n            (renterPermission >= resourcePermission),\n            \"The User is allowed to book the room\"\n        );\n\n        currentRenter = renterAddress;\n        fromTimestamp = fromTimeStampInput;\n        toTimestamp = toTimeStampInput;\n\n        emit BookingCreated(\n            fromTimeStampInput,\n            toTimeStampInput,\n            renterAddress,\n            renterPermission\n        );\n    }\n\n    function getRentalRenter() public view returns (address) {\n        return currentRenter;\n    }\n\n    function getResourceRequiredPermission() public view returns (Permission) {\n        return resourcePermission;\n    }\n\n    modifier isOwner() {\n        require(msg.sender == owner, \"Caller is not owner\");\n        _;\n    }\n}\n",
  "sourcePath": "/home/dizzle/Dev/RessourceRental/truffle/contracts/ResourceRentalGetInformation.sol",
  "compiler": {
    "name": "solc",
    "version": "0.5.16+commit.9c3226ce.Emscripten.clang"
  },
  "schemaVersion": "3.4.7",
  "updatedAt": "2022-06-01T16:03:30.538Z",
  "devdoc": {
    "methods": {}
  },
  "userdoc": {
    "methods": {}
  }
}