{
  "contractName": "ResourceRental",
  "abi": [
    {
      "inputs": [],
      "payable": false,
      "stateMutability": "nonpayable",
      "type": "constructor"
    },
    {
      "anonymous": false,
      "inputs": [
        {
          "indexed": false,
          "internalType": "uint256",
          "name": "bookingId",
          "type": "uint256"
        },
        {
          "indexed": false,
          "internalType": "uint256",
          "name": "fromTimeStamp",
          "type": "uint256"
        },
        {
          "indexed": false,
          "internalType": "uint256",
          "name": "toTimeStamp",
          "type": "uint256"
        }
      ],
      "name": "BookingCreated",
      "type": "event"
    },
    {
      "constant": true,
      "inputs": [
        {
          "internalType": "uint256",
          "name": "",
          "type": "uint256"
        }
      ],
      "name": "bookings",
      "outputs": [
        {
          "internalType": "uint256",
          "name": "bookingId",
          "type": "uint256"
        },
        {
          "internalType": "uint256",
          "name": "fromDate",
          "type": "uint256"
        },
        {
          "internalType": "uint256",
          "name": "toDate",
          "type": "uint256"
        },
        {
          "internalType": "uint256",
          "name": "renter",
          "type": "uint256"
        }
      ],
      "payable": false,
      "stateMutability": "view",
      "type": "function"
    },
    {
      "constant": true,
      "inputs": [],
      "name": "bookingsCount",
      "outputs": [
        {
          "internalType": "uint256",
          "name": "",
          "type": "uint256"
        }
      ],
      "payable": false,
      "stateMutability": "view",
      "type": "function"
    },
    {
      "constant": false,
      "inputs": [
        {
          "internalType": "uint256",
          "name": "fromTimeStamp",
          "type": "uint256"
        },
        {
          "internalType": "uint256",
          "name": "toTimeStamp",
          "type": "uint256"
        },
        {
          "internalType": "uint256",
          "name": "renterAddress",
          "type": "uint256"
        }
      ],
      "name": "createBooking",
      "outputs": [],
      "payable": false,
      "stateMutability": "nonpayable",
      "type": "function"
    }
  ],
  "bytecode": "0x60806040526000805534801561001457600080fd5b50610229806100246000396000f3fe608060405234801561001057600080fd5b50600436106100415760003560e01c80630ddd9c85146100465780631dab301e14610088578063b6406b18146100df575b600080fd5b6100866004803603606081101561005c57600080fd5b810190808035906020019092919080359060200190929190803590602001909291905050506100fd565b005b6100b46004803603602081101561009e57600080fd5b81019080803590602001909291905050506101be565b6040518085815260200184815260200183815260200182815260200194505050505060405180910390f35b6100e76101ee565b6040518082815260200191505060405180910390f35b600080815480929190600101919050555060405180608001604052806000548152602001848152602001838152602001828152506001600080548152602001908152602001600020600082015181600001556020820151816001015560408201518160020155606082015181600301559050507ffbca441833367da3d4bfea5bcbdcceda7985ed3917dc9338639fc49ac1257d52600054848460405180848152602001838152602001828152602001935050505060405180910390a1505050565b60016020528060005260406000206000915090508060000154908060010154908060020154908060030154905084565b6000548156fea265627a7a7231582045efacaaf8dab3b21c0155f1982a1d2bd1b22d3ffec5492d3563a06cca1bff0664736f6c63430005100032",
  "source": "pragma solidity ^0.5.16;\n\ncontract ResourceRental {\n    uint256 public bookingsCount = 0;\n    mapping(uint256 => Booking) public bookings;\n    // address public owner;\n    Resource resourceInformation;\n\n    struct Booking {\n        uint256 bookingId;\n        uint256 fromDate;\n        uint256 toDate;\n        uint256 renter;\n    }\n\n    struct Resource {\n        uint256 maxRentTime;\n        bool buyOut;\n    }\n\n    constructor() public {\n        // owner = msg.sender;\n    }\n\n    event BookingCreated(\n        uint256 bookingId,\n        uint256 fromTimeStamp,\n        uint256 toTimeStamp\n    );\n\n    function createBooking(\n        uint256 fromTimeStamp,\n        uint256 toTimeStamp,\n        uint256 renterAddress\n    ) public {\n        bookingsCount++;\n\n        bookings[bookingsCount] = Booking(\n            bookingsCount,\n            fromTimeStamp,\n            toTimeStamp,\n            renterAddress\n        );\n\n        emit BookingCreated(bookingsCount, fromTimeStamp, toTimeStamp);\n    }\n}\n",
  "sourcePath": "/home/dizzle/Dev/RessourceRental/truffle/contracts/ResourceRental.sol",
  "compiler": {
    "name": "solc",
    "version": "0.5.16+commit.9c3226ce.Emscripten.clang"
  },
  "schemaVersion": "3.4.7",
  "updatedAt": "2022-05-09T13:32:09.305Z",
  "devdoc": {
    "methods": {}
  },
  "userdoc": {
    "methods": {}
  }
}