{
  "contractName": "ResourceRentalMain",
  "abi": [
    {
      "inputs": [],
      "payable": false,
      "stateMutability": "nonpayable",
      "type": "constructor"
    },
    {
      "anonymous": false,
      "inputs": [
        {
          "indexed": false,
          "internalType": "uint256",
          "name": "bookingId",
          "type": "uint256"
        },
        {
          "indexed": false,
          "internalType": "uint256",
          "name": "resourceId",
          "type": "uint256"
        },
        {
          "indexed": false,
          "internalType": "uint256",
          "name": "startTimestamp",
          "type": "uint256"
        },
        {
          "indexed": false,
          "internalType": "uint256",
          "name": "endTimestamp",
          "type": "uint256"
        }
      ],
      "name": "ExtendResourceBooking",
      "type": "event"
    },
    {
      "anonymous": false,
      "inputs": [
        {
          "indexed": false,
          "internalType": "uint256",
          "name": "bookingId",
          "type": "uint256"
        },
        {
          "indexed": false,
          "internalType": "uint256",
          "name": "resourceId",
          "type": "uint256"
        },
        {
          "indexed": false,
          "internalType": "uint256",
          "name": "startTimestamp",
          "type": "uint256"
        },
        {
          "indexed": false,
          "internalType": "uint256",
          "name": "endTimestamp",
          "type": "uint256"
        }
      ],
      "name": "NewResourceBooking",
      "type": "event"
    },
    {
      "constant": true,
      "inputs": [
        {
          "internalType": "address",
          "name": "",
          "type": "address"
        }
      ],
      "name": "universities",
      "outputs": [
        {
          "internalType": "string",
          "name": "",
          "type": "string"
        }
      ],
      "payable": false,
      "stateMutability": "view",
      "type": "function"
    },
    {
      "constant": true,
      "inputs": [],
      "name": "getMessage",
      "outputs": [
        {
          "internalType": "string",
          "name": "",
          "type": "string"
        }
      ],
      "payable": false,
      "stateMutability": "view",
      "type": "function"
    },
    {
      "constant": true,
      "inputs": [],
      "name": "getBackendAddress",
      "outputs": [
        {
          "internalType": "string",
          "name": "",
          "type": "string"
        }
      ],
      "payable": false,
      "stateMutability": "view",
      "type": "function"
    },
    {
      "constant": false,
      "inputs": [
        {
          "internalType": "address",
          "name": "_universityAddress",
          "type": "address"
        },
        {
          "internalType": "string",
          "name": "_university",
          "type": "string"
        }
      ],
      "name": "addUniversity",
      "outputs": [],
      "payable": false,
      "stateMutability": "nonpayable",
      "type": "function"
    },
    {
      "constant": false,
      "inputs": [
        {
          "internalType": "uint256",
          "name": "_bookingId",
          "type": "uint256"
        },
        {
          "internalType": "uint256",
          "name": "_resourceId",
          "type": "uint256"
        },
        {
          "internalType": "uint256",
          "name": "_startTimestamp",
          "type": "uint256"
        },
        {
          "internalType": "uint256",
          "name": "_endTimestamp",
          "type": "uint256"
        },
        {
          "internalType": "uint256",
          "name": "_offsetBookingTime",
          "type": "uint256"
        }
      ],
      "name": "createResourceBooking",
      "outputs": [],
      "payable": false,
      "stateMutability": "nonpayable",
      "type": "function"
    },
    {
      "constant": false,
      "inputs": [
        {
          "internalType": "uint256",
          "name": "_exentTime",
          "type": "uint256"
        },
        {
          "internalType": "uint256",
          "name": "_resourceId",
          "type": "uint256"
        },
        {
          "internalType": "uint256",
          "name": "_startTimestamp",
          "type": "uint256"
        },
        {
          "internalType": "uint256",
          "name": "_endTimestamp",
          "type": "uint256"
        }
      ],
      "name": "extendResourceBooking",
      "outputs": [],
      "payable": false,
      "stateMutability": "nonpayable",
      "type": "function"
    },
    {
      "constant": false,
      "inputs": [
        {
          "internalType": "address",
          "name": "_address",
          "type": "address"
        }
      ],
      "name": "deleteUniversity",
      "outputs": [],
      "payable": false,
      "stateMutability": "nonpayable",
      "type": "function"
    }
  ],
  "bytecode": "0x608060405234801561001057600080fd5b5033600560006101000a81548173ffffffffffffffffffffffffffffffffffffffff021916908373ffffffffffffffffffffffffffffffffffffffff1602179055506040518060400160405280601b81526020017f426f6f6b696e6720436f6e747261637420637265617465642e2e2e00000000008152506006908051906020019061009d9291906100a3565b50610148565b828054600181600116156101000203166002900490600052602060002090601f016020900481019282601f106100e457805160ff1916838001178555610112565b82800160010185558215610112579182015b828111156101115782518255916020019190600101906100f6565b5b50905061011f9190610123565b5090565b61014591905b80821115610141576000816000905550600101610129565b5090565b90565b610b3c806101576000396000f3fe608060405234801561001057600080fd5b506004361061007d5760003560e01c8063c0b3f43c1161005b578063c0b3f43c146101ed578063ce6d41de14610243578063edb39a40146102c6578063f0995560146103495761007d565b806310206ff414610082578063957db82d146100c6578063a908dc6214610112575b600080fd5b6100c46004803603602081101561009857600080fd5b81019080803573ffffffffffffffffffffffffffffffffffffffff169060200190929190505050610406565b005b610110600480360360808110156100dc57600080fd5b81019080803590602001909291908035906020019092919080359060200190929190803590602001909291905050506104ab565b005b6101eb6004803603604081101561012857600080fd5b81019080803573ffffffffffffffffffffffffffffffffffffffff1690602001909291908035906020019064010000000081111561016557600080fd5b82018360208201111561017757600080fd5b8035906020019184600183028401116401000000008311171561019957600080fd5b91908080601f016020809104026020016040519081016040528093929190818152602001838380828437600081840152601f19601f820116905080830192505050505050509192919290505050610559565b005b610241600480360360a081101561020357600080fd5b810190808035906020019092919080359060200190929190803590602001909291908035906020019092919080359060200190929190505050610608565b005b61024b6107da565b6040518080602001828103825283818151815260200191508051906020019080838360005b8381101561028b578082015181840152602081019050610270565b50505050905090810190601f1680156102b85780820380516001836020036101000a031916815260200191505b509250505060405180910390f35b6102ce61087c565b6040518080602001828103825283818151815260200191508051906020019080838360005b8381101561030e5780820151818401526020810190506102f3565b50505050905090810190601f16801561033b5780820380516001836020036101000a031916815260200191505b509250505060405180910390f35b61038b6004803603602081101561035f57600080fd5b81019080803573ffffffffffffffffffffffffffffffffffffffff16906020019092919050505061091e565b6040518080602001828103825283818151815260200191508051906020019080838360005b838110156103cb5780820151818401526020810190506103b0565b50505050905090810190601f1680156103f85780820380516001836020036101000a031916815260200191505b509250505060405180910390f35b600560009054906101000a900473ffffffffffffffffffffffffffffffffffffffff1673ffffffffffffffffffffffffffffffffffffffff163373ffffffffffffffffffffffffffffffffffffffff1614156104a857600760008273ffffffffffffffffffffffffffffffffffffffff1673ffffffffffffffffffffffffffffffffffffffff16815260200190815260200160002060006104a791906109ce565b5b50565b600560009054906101000a900473ffffffffffffffffffffffffffffffffffffffff1673ffffffffffffffffffffffffffffffffffffffff163373ffffffffffffffffffffffffffffffffffffffff161415610553577f1a63c17c32d74ebe380fd02e4ed6fe847c4e55f12ae1f1fd96ea0b68163429d78484848785016040518085815260200184815260200183815260200182815260200194505050505060405180910390a15b50505050565b600560009054906101000a900473ffffffffffffffffffffffffffffffffffffffff1673ffffffffffffffffffffffffffffffffffffffff163373ffffffffffffffffffffffffffffffffffffffff1614156106045780600760008473ffffffffffffffffffffffffffffffffffffffff1673ffffffffffffffffffffffffffffffffffffffff1681526020019081526020016000209080519060200190610602929190610a16565b505b5050565b600560009054906101000a900473ffffffffffffffffffffffffffffffffffffffff1673ffffffffffffffffffffffffffffffffffffffff163373ffffffffffffffffffffffffffffffffffffffff1614156107d357826000600401540142106106bd576040517f08c379a0000000000000000000000000000000000000000000000000000000008152600401808060200182810382526023815260200180610ae56023913960400191505060405180910390fd5b600060030154600060020154600060010154011115610727576040517f08c379a0000000000000000000000000000000000000000000000000000000008152600401808060200182810382526029815260200180610abc6029913960400191505060405180910390fd5b6040518060a00160405280868152602001858152602001848152602001838152602001828152506000808201518160000155602082015181600101556040820151816002015560608201518160030155608082015181600401559050507e6044256ba0743447d897c3e6ba3ad3e6f1526aa0a4e49a9f2408f37c7c66f7858585856040518085815260200184815260200183815260200182815260200194505050505060405180910390a15b5050505050565b606060068054600181600116156101000203166002900480601f0160208091040260200160405190810160405280929190818152602001828054600181600116156101000203166002900480156108725780601f1061084757610100808354040283529160200191610872565b820191906000526020600020905b81548152906001019060200180831161085557829003601f168201915b5050505050905090565b606060068054600181600116156101000203166002900480601f0160208091040260200160405190810160405280929190818152602001828054600181600116156101000203166002900480156109145780601f106108e957610100808354040283529160200191610914565b820191906000526020600020905b8154815290600101906020018083116108f757829003601f168201915b5050505050905090565b60076020528060005260406000206000915090508054600181600116156101000203166002900480601f0160208091040260200160405190810160405280929190818152602001828054600181600116156101000203166002900480156109c65780601f1061099b576101008083540402835291602001916109c6565b820191906000526020600020905b8154815290600101906020018083116109a957829003601f168201915b505050505081565b50805460018160011615610100020316600290046000825580601f106109f45750610a13565b601f016020900490600052602060002090810190610a129190610a96565b5b50565b828054600181600116156101000203166002900490600052602060002090601f016020900481019282601f10610a5757805160ff1916838001178555610a85565b82800160010185558215610a85579182015b82811115610a84578251825591602001919060010190610a69565b5b509050610a929190610a96565b5090565b610ab891905b80821115610ab4576000816000905550600101610a9c565b5090565b9056fe54686520626f6f6b696e672074696d652069732061626f766520746865206d617852656e7454696d6554686520626f6f6b696e672068617320746f20626520696e2074686520667574757265a265627a7a72315820c055297d12bc9961593f7b21cbd23b781e75ba9e6f2c01ce451a3912fb6a527f64736f6c63430005100032",
  "source": "pragma solidity >=0.5.0 <0.6.0;\n\ncontract ResourceRentalMain {\n    Booking booking;\n    address backendAddress;\n    string message;\n    mapping(address => string) public universities;\n\n    constructor() public {\n        backendAddress = msg.sender;\n        message = \"Booking Contract created...\";\n    }\n\n    function getMessage() public view returns (string memory) {\n        return message;\n    }\n\n    function getBackendAddress() public view returns (string memory) {\n        return message;\n    }\n\n    function addUniversity(\n        address _universityAddress,\n        string memory _university\n    ) public isBackend {\n        universities[_universityAddress] = _university;\n    }\n\n    // function getBooking() public view returns (string memory) {\n    //     return booking.bookingId;\n    // }\n\n    function createResourceBooking(\n        uint256 _bookingId,\n        uint256 _resourceId,\n        uint256 _startTimestamp,\n        uint256 _endTimestamp,\n        uint256 _offsetBookingTime\n    ) public isBackend {\n        require(\n            block.timestamp <\n                (booking.offsetBookingTime + uint256(_startTimestamp)),\n            \"The booking has to be in the future\"\n        );\n\n        // require(\n        //     (booking.renterPermission >= booking.resourcePermission),\n        //     \"The User is allowed to book the room\"\n        // );\n\n        require(\n            (booking.startTimestamp + booking.endTimestamp <=\n                booking.maxRentTime),\n            \"The booking time is above the maxRentTime\"\n        );\n\n        booking = Booking(\n            _bookingId,\n            _resourceId,\n            _startTimestamp,\n            _endTimestamp,\n            _offsetBookingTime\n        );\n        emit NewResourceBooking(\n            _bookingId,\n            _resourceId,\n            _startTimestamp,\n            _endTimestamp\n        );\n    }\n\n    struct Booking {\n        uint256 resourceId;\n        uint256 startTimestamp;\n        uint256 endTimestamp;\n        uint256 maxRentTime;\n        uint256 offsetBookingTime;\n    }\n\n    function extendResourceBooking(\n        uint256 _exentTime,\n        uint256 _resourceId,\n        uint256 _startTimestamp,\n        uint256 _endTimestamp\n    ) public isBackend {\n        emit ExtendResourceBooking(\n            _exentTime,\n            _resourceId,\n            _startTimestamp,\n            _endTimestamp + _exentTime\n        );\n    }\n\n    modifier isBackend() {\n        if (msg.sender == backendAddress) _;\n    }\n\n    // modifier isUniversity() {\n    //     if (universities[msg.sender] > 0) _;\n    // }\n\n    function deleteUniversity(address _address) public isBackend {\n        delete universities[_address];\n    }\n\n    event ExtendResourceBooking(\n        uint256 bookingId,\n        uint256 resourceId,\n        uint256 startTimestamp,\n        uint256 endTimestamp\n    );\n\n    event NewResourceBooking(\n        uint256 bookingId,\n        uint256 resourceId,\n        uint256 startTimestamp,\n        uint256 endTimestamp\n    );\n}\n",
  "sourcePath": "/home/dizzle/Dev/RessourceRental/frontend/truffleUnbox/contracts/ResourceRentalMain.sol",
  "compiler": {
    "name": "solc",
    "version": "0.5.16+commit.9c3226ce.Emscripten.clang"
  },
  "schemaVersion": "3.4.7",
  "updatedAt": "2022-06-07T09:29:30.024Z",
  "devdoc": {
    "methods": {}
  },
  "userdoc": {
    "methods": {}
  }
}